{
  "transactions": [
    {
      "hash": "0x7b87606d15c7a441e139e6ffd4d125ae2da9f4498eb102d066fea566c977820c",
      "transactionType": "CALL",
      "contractName": null,
      "contractAddress": "0x088276f447bd80882330e225a255930c201836c4",
      "function": "addCosigner(address)",
      "arguments": [
        "0x993f64E049F95d246dc7B0D196CB5dC419d4e1f1"
      ],
      "transaction": {
        "from": "0x6ae493db8577b7387a335a81a1b562415d0ccb4b",
        "to": "0x088276f447bd80882330e225a255930c201836c4",
        "gas": "0x12006",
        "value": "0x0",
        "input": "0x6dbf1655000000000000000000000000993f64e049f95d246dc7b0d196cb5dc419d4e1f1",
        "nonce": "0x4",
        "chainId": "0x1"
      },
      "additionalContracts": [],
      "isFixedGasLimit": false
    }
  ],
  "receipts": [
    {
      "status": "0x1",
      "cumulativeGasUsed": "0x371c21",
      "logs": [
        {
          "address": "0x088276f447bd80882330e225a255930c201836c4",
          "topics": [
            "0x758f46d6402b2cfe183c96029286524f6abcfbe17b1cc7db2834ecc3f23640d5",
            "0x000000000000000000000000993f64e049f95d246dc7b0d196cb5dc419d4e1f1"
          ],
          "data": "0x",
          "blockHash": "0xeb0d799b2f0a5bf4228442e1760cbc65dd6cdad17aeafcea2999cad26d27a7bf",
          "blockNumber": "0x151dccb",
          "transactionHash": "0x7b87606d15c7a441e139e6ffd4d125ae2da9f4498eb102d066fea566c977820c",
          "transactionIndex": "0x43",
          "logIndex": "0x33",
          "removed": false
        }
      ],
      "logsBloom": "0x00000000000000000000000000000020000000000000000002000000000000000000000000000000000000000000000000000000000000000000000000000000000000000000000000000000000000000000000000000000000000000000000000000000000000000000000000000010000000000000000000000000000000000000000008002000000000000000000000000000000000000000000000000000000008000000000000000000000000000000000000000000000000000000000000000000000000000000000000000000000000000000000000010000000000000000000000000080000000000000000000000000000000000000000000000000",
      "type": "0x2",
      "transactionHash": "0x7b87606d15c7a441e139e6ffd4d125ae2da9f4498eb102d066fea566c977820c",
      "transactionIndex": "0x43",
      "blockHash": "0xeb0d799b2f0a5bf4228442e1760cbc65dd6cdad17aeafcea2999cad26d27a7bf",
      "blockNumber": "0x151dccb",
      "gasUsed": "0xc4f1",
      "effectiveGasPrice": "0x2466c9c3",
      "from": "0x6ae493db8577b7387a335a81a1b562415d0ccb4b",
      "to": "0x088276f447bd80882330e225a255930c201836c4",
      "contractAddress": null
    }
  ],
  "libraries": [],
  "pending": [],
  "returns": {},
  "timestamp": 1743125605,
  "chain": 1,
  "commit": "51e6f0d"
}