{
  "transactions": [
    {
      "hash": "0x02113ea60ab6b0b77a03565130fc761e0d705be20bcd89399450389fb7a2d0e4",
      "transactionType": "CALL",
      "contractName": null,
      "contractAddress": "0x4c93183f1a40eeb12886b6713187937ec08da3f0",
      "function": "addCosigner(address)",
      "arguments": [
        "0x993f64E049F95d246dc7B0D196CB5dC419d4e1f1"
      ],
      "transaction": {
        "from": "0x6ae493db8577b7387a335a81a1b562415d0ccb4b",
        "to": "0x4c93183f1a40eeb12886b6713187937ec08da3f0",
        "gas": "0x11024",
        "value": "0x0",
        "input": "0x6dbf1655000000000000000000000000993f64e049f95d246dc7b0d196cb5dc419d4e1f1",
        "nonce": "0x1a",
        "chainId": "0x1"
      },
      "additionalContracts": [],
      "isFixedGasLimit": false
    }
  ],
  "receipts": [
    {
      "status": "0x1",
      "cumulativeGasUsed": "0xb2de0a",
      "logs": [
        {
          "address": "0x4c93183f1a40eeb12886b6713187937ec08da3f0",
          "topics": [
            "0x758f46d6402b2cfe183c96029286524f6abcfbe17b1cc7db2834ecc3f23640d5",
            "0x000000000000000000000000993f64e049f95d246dc7b0d196cb5dc419d4e1f1"
          ],
          "data": "0x",
          "blockHash": "0x1e001404e05fc0fa58d18aed3ba9b097064f1157ad97820be1a35e01c4cf8024",
          "blockNumber": "0x156357a",
          "transactionHash": "0x02113ea60ab6b0b77a03565130fc761e0d705be20bcd89399450389fb7a2d0e4",
          "transactionIndex": "0x87",
          "logIndex": "0x121",
          "removed": false
        }
      ],
      "logsBloom": "0x00000000000000000000000000010020000000000000000002000000000020000000000000000000000000000000000000000000000000000000000000000000000000000000000000000000000000000000000800000000000000000000000000000000000000000000000000000010000000000000000000000000000000000000000000002000000000000000000000000000000000000000000000000000000008000000000000000000000000000000000000000000000000000000000000000000000000000000000000000000000000000000000000000000000000000000000000000000000000000000000000000000000000000000000000000000",
      "type": "0x2",
      "transactionHash": "0x02113ea60ab6b0b77a03565130fc761e0d705be20bcd89399450389fb7a2d0e4",
      "transactionIndex": "0x87",
      "blockHash": "0x1e001404e05fc0fa58d18aed3ba9b097064f1157ad97820be1a35e01c4cf8024",
      "blockNumber": "0x156357a",
      "gasUsed": "0xc507",
      "effectiveGasPrice": "0x1e4b15e3",
      "from": "0x6ae493db8577b7387a335a81a1b562415d0ccb4b",
      "to": "0x4c93183f1a40eeb12886b6713187937ec08da3f0",
      "contractAddress": null
    }
  ],
  "libraries": [],
  "pending": [],
  "returns": {},
  "timestamp": 1746562765,
  "chain": 1,
  "commit": "0ca9113"
}