{
  "transactions": [
    {
      "hash": "0x9252798037f654794d4e24f35a427ae9be87a50dd0ed18dc8c7e9ea84fa3ffb7",
      "transactionType": "CALL",
      "contractName": null,
      "contractAddress": "0x0178070d088c235e1dc2696d257f90b3ded475a3",
      "function": "setCommitExpireTime(uint256)",
      "arguments": [
        "180"
      ],
      "transaction": {
        "from": "0x6ae493db8577b7387a335a81a1b562415d0ccb4b",
        "to": "0x0178070d088c235e1dc2696d257f90b3ded475a3",
        "gas": "0xa47c",
        "value": "0x0",
        "input": "0x6df6f65500000000000000000000000000000000000000000000000000000000000000b4",
        "nonce": "0x57",
        "chainId": "0x1"
      },
      "additionalContracts": [],
      "isFixedGasLimit": false
    }
  ],
  "receipts": [
    {
      "status": "0x1",
      "cumulativeGasUsed": "0x6c401d",
      "logs": [
        {
          "address": "0x0178070d088c235e1dc2696d257f90b3ded475a3",
          "topics": [
            "0xe2fb712a5946b3b548dea5ea22a8066876e65107d76a20bc6485f425ed5c2895"
          ],
          "data": "0x000000000000000000000000000000000000000000000000000000000001518000000000000000000000000000000000000000000000000000000000000000b4",
          "blockHash": "0xc53ad9ebc37cc6c671bacfd90fc99636eaa30ce491e6d211d37e3b6951333bcb",
          "blockNumber": "0x1579b87",
          "transactionHash": "0x9252798037f654794d4e24f35a427ae9be87a50dd0ed18dc8c7e9ea84fa3ffb7",
          "transactionIndex": "0x77",
          "logIndex": "0xad",
          "removed": false
        }
      ],
      "logsBloom": "0x00000000000000000000000000000000000000000000000000000000000000000000000000000000000000000000000000000000000000000000000000000000800000000000000000000008000000000000000000000000040000000000000000000100000000000000000000000002000000000000000000000000000000000000000000000000000000000000000000000000000000040000000000000000000000000000000000000000000000000000000000000000000000000000000000000000000000000000000000000000000000000000000000000000000000000000000000000000000000000000000000000000000000000000000000000000",
      "type": "0x2",
      "transactionHash": "0x9252798037f654794d4e24f35a427ae9be87a50dd0ed18dc8c7e9ea84fa3ffb7",
      "transactionIndex": "0x77",
      "blockHash": "0xc53ad9ebc37cc6c671bacfd90fc99636eaa30ce491e6d211d37e3b6951333bcb",
      "blockNumber": "0x1579b87",
      "gasUsed": "0x7716",
      "effectiveGasPrice": "0x973bae9d",
      "from": "0x6ae493db8577b7387a335a81a1b562415d0ccb4b",
      "to": "0x0178070d088c235e1dc2696d257f90b3ded475a3",
      "contractAddress": null
    }
  ],
  "libraries": [],
  "pending": [],
  "returns": {},
  "timestamp": 1747677830,
  "chain": 1,
  "commit": "22dc1d4"
}