{
  "transactions": [
    {
      "hash": "0xf6ed1057ced09d605af2ebca0e7592666c466958adabaa5d8d0ba1c79ce5bf9b",
      "transactionType": "CALL",
      "contractName": null,
      "contractAddress": "0x4c93183f1a40eeb12886b6713187937ec08da3f0",
      "function": "setFlatFee(uint256)",
      "arguments": [
        "825000000000000"
      ],
      "transaction": {
        "from": "0x6ae493db8577b7387a335a81a1b562415d0ccb4b",
        "to": "0x4c93183f1a40eeb12886b6713187937ec08da3f0",
        "gas": "0x1083c",
        "value": "0x0",
        "input": "0x23fa495a0000000000000000000000000000000000000000000000000002ee5547f09000",
        "nonce": "0x1c",
        "chainId": "0x1"
      },
      "additionalContracts": [],
      "isFixedGasLimit": false
    }
  ],
  "receipts": [
    {
      "status": "0x1",
      "cumulativeGasUsed": "0xce3187",
      "logs": [
        {
          "address": "0x4c93183f1a40eeb12886b6713187937ec08da3f0",
          "topics": [
            "0x957f8e165512616cc1b935b3ba999a8a0870b6e18300af633ba488f7926bce2d"
          ],
          "data": "0x00000000000000000000000000000000000000000000000000000000000000000000000000000000000000000000000000000000000000000002ee5547f09000",
          "blockHash": "0xd82eb49dd56b871c4b39c830c0705736bb0307d4b99a99fc317da39af116abbb",
          "blockNumber": "0x1563587",
          "transactionHash": "0xf6ed1057ced09d605af2ebca0e7592666c466958adabaa5d8d0ba1c79ce5bf9b",
          "transactionIndex": "0xc8",
          "logIndex": "0x10d",
          "removed": false
        }
      ],
      "logsBloom": "0x00000000000000000000000000010000000000000000000000000000000020000000000000000000000000000000000000000000000000000000000000000000400000000000000000000000000000000000000800000000000000000000000000080000000000000000000000000000000000000000000000000000000000000000000000000000000000000000000000000000000000000000000000000000000000000000000000000000000000000000000000000000000000000000000000000000000000000000000000000000000000000000000000000000000000000000000000000000000000000008000000000000000000000000000000000000",
      "type": "0x2",
      "transactionHash": "0xf6ed1057ced09d605af2ebca0e7592666c466958adabaa5d8d0ba1c79ce5bf9b",
      "transactionIndex": "0xc8",
      "blockHash": "0xd82eb49dd56b871c4b39c830c0705736bb0307d4b99a99fc317da39af116abbb",
      "blockNumber": "0x1563587",
      "gasUsed": "0xbf4e",
      "effectiveGasPrice": "0x1e36e851",
      "from": "0x6ae493db8577b7387a335a81a1b562415d0ccb4b",
      "to": "0x4c93183f1a40eeb12886b6713187937ec08da3f0",
      "contractAddress": null
    }
  ],
  "libraries": [],
  "pending": [],
  "returns": {},
  "timestamp": 1746562947,
  "chain": 1,
  "commit": "0ca9113"
}