{
  "transactions": [
    {
      "hash": "0xe101081fde9629a9ed9c93d18b9f9112a840da57dee63a6c360ad5a2a99f80c1",
      "transactionType": "CALL",
      "contractName": null,
      "contractAddress": "0x4c93183f1a40eeb12886b6713187937ec08da3f0",
      "function": "setCommitExpireTime(uint256)",
      "arguments": [
        "180"
      ],
      "transaction": {
        "from": "0x6ae493db8577b7387a335a81a1b562415d0ccb4b",
        "to": "0x4c93183f1a40eeb12886b6713187937ec08da3f0",
        "gas": "0xaf4f",
        "value": "0x0",
        "input": "0x6df6f65500000000000000000000000000000000000000000000000000000000000000b4",
        "nonce": "0x1d",
        "chainId": "0x1"
      },
      "additionalContracts": [],
      "isFixedGasLimit": false
    }
  ],
  "receipts": [
    {
      "status": "0x1",
      "cumulativeGasUsed": "0x10fb273",
      "logs": [
        {
          "address": "0x4c93183f1a40eeb12886b6713187937ec08da3f0",
          "topics": [
            "0xe2fb712a5946b3b548dea5ea22a8066876e65107d76a20bc6485f425ed5c2895"
          ],
          "data": "0x000000000000000000000000000000000000000000000000000000000001518000000000000000000000000000000000000000000000000000000000000000b4",
          "blockHash": "0x6090b18c8f4216a48ce010b1df30ab71a0c6fe692ef61d908f791ee1cc300708",
          "blockNumber": "0x1563590",
          "transactionHash": "0xe101081fde9629a9ed9c93d18b9f9112a840da57dee63a6c360ad5a2a99f80c1",
          "transactionIndex": "0xae",
          "logIndex": "0x1ec",
          "removed": false
        }
      ],
      "logsBloom": "0x00000000000000000000000000010000000000000000000000000000000020000000000000000000000000000000000000000000000000000000000000000000800000000000000000000008000000000000000800000000040000000000000000000000000000000000000000000000000000000000000000000000000000000000000000000000000000000000000000000000000000000000000000000000000000000000000000000000000000000000000000000000000000000000000000000000000000000000000000000000000000000000000000000000000000000000000000000000000000000000000000000000000000000000000000000000",
      "type": "0x2",
      "transactionHash": "0xe101081fde9629a9ed9c93d18b9f9112a840da57dee63a6c360ad5a2a99f80c1",
      "transactionIndex": "0xae",
      "blockHash": "0x6090b18c8f4216a48ce010b1df30ab71a0c6fe692ef61d908f791ee1cc300708",
      "blockNumber": "0x1563590",
      "gasUsed": "0x7eed",
      "effectiveGasPrice": "0x1d8da8fe",
      "from": "0x6ae493db8577b7387a335a81a1b562415d0ccb4b",
      "to": "0x4c93183f1a40eeb12886b6713187937ec08da3f0",
      "contractAddress": null
    }
  ],
  "libraries": [],
  "pending": [],
  "returns": {},
  "timestamp": 1746563054,
  "chain": 1,
  "commit": "0ca9113"
}