{
  "transactions": [
    {
      "hash": "0xd8f5d5acb3c7e0cadc3b849d7b89176025e038d3cde156596450942e0f8d91c5",
      "transactionType": "CALL",
      "contractName": null,
      "contractAddress": "0x62a3a7ebc812810f868ef52be81935147ed9456c",
      "function": "mint(address,uint256,uint256,bytes)",
      "arguments": [
        "0x85d31445AF0b0fF26851bf3C5e27e90058Df3270",
        "1",
        "1000000000000000000000",
        "0x"
      ],
      "transaction": {
        "from": "0x6ae493db8577b7387a335a81a1b562415d0ccb4b",
        "to": "0x62a3a7ebc812810f868ef52be81935147ed9456c",
        "gas": "0x14b44",
        "value": "0x0",
        "input": "0x731133e900000000000000000000000085d31445af0b0ff26851bf3c5e27e90058df3270000000000000000000000000000000000000000000000000000000000000000100000000000000000000000000000000000000000000003635c9adc5dea0000000000000000000000000000000000000000000000000000000000000000000800000000000000000000000000000000000000000000000000000000000000000",
        "nonce": "0x7",
        "chainId": "0x1"
      },
      "additionalContracts": [],
      "isFixedGasLimit": false
    }
  ],
  "receipts": [
    {
      "status": "0x1",
      "cumulativeGasUsed": "0x9b4fe7",
      "logs": [
        {
          "address": "0x62a3a7ebc812810f868ef52be81935147ed9456c",
          "topics": [
            "0xc3d58168c5ae7397731d063d5bbf3d657854427343f4c083240f7aacaa2d0f62",
            "0x0000000000000000000000006ae493db8577b7387a335a81a1b562415d0ccb4b",
            "0x0000000000000000000000000000000000000000000000000000000000000000",
            "0x00000000000000000000000085d31445af0b0ff26851bf3c5e27e90058df3270"
          ],
          "data": "0x000000000000000000000000000000000000000000000000000000000000000100000000000000000000000000000000000000000000003635c9adc5dea00000",
          "blockHash": "0xdf397fcc6f19d079a9ba7d387290c480b49b308df8a673e8416f4e3b968199ae",
          "blockNumber": "0x1530bfb",
          "transactionHash": "0xd8f5d5acb3c7e0cadc3b849d7b89176025e038d3cde156596450942e0f8d91c5",
          "transactionIndex": "0x7c",
          "logIndex": "0x11c",
          "removed": false
        }
      ],
      "logsBloom": "0x00000000000000000000000000000000000000000000000000000000000000000000000000000000000000002000000000000000000000000000000010002000000000000000000000000000000000000000000000000000000000000000000000000000020000000000000040000800000000000000000000000000000400000000000000000000000000000000000000000000000000000000000000000000000000000000000000000000000000000000000000000000000000000000000000000001000000000000000000000000000000000009000002000000000020000000000000000000000000000000000800000000000000400000080000000000",
      "type": "0x2",
      "transactionHash": "0xd8f5d5acb3c7e0cadc3b849d7b89176025e038d3cde156596450942e0f8d91c5",
      "transactionIndex": "0x7c",
      "blockHash": "0xdf397fcc6f19d079a9ba7d387290c480b49b308df8a673e8416f4e3b968199ae",
      "blockNumber": "0x1530bfb",
      "gasUsed": "0xefd5",
      "effectiveGasPrice": "0xa16e327a",
      "from": "0x6ae493db8577b7387a335a81a1b562415d0ccb4b",
      "to": "0x62a3a7ebc812810f868ef52be81935147ed9456c",
      "contractAddress": null
    }
  ],
  "libraries": [],
  "pending": [],
  "returns": {},
  "timestamp": 1744062109,
  "chain": 1,
  "commit": "d96c6be"
}