{
  "transactions": [
    {
      "hash": "0xc93348e4b7bd20fb12bc28851db9ba418307329f9455b5140e97aa792b77833d",
      "transactionType": "CALL",
      "contractName": null,
      "contractAddress": "0x85d31445af0b0ff26851bf3c5e27e90058df3270",
      "function": "setOpenEditionToken(address,uint256,uint256)",
      "arguments": [
        "0x62A3A7ebc812810f868ef52be81935147Ed9456c",
        "1",
        "1"
      ],
      "transaction": {
        "from": "0x6ae493db8577b7387a335a81a1b562415d0ccb4b",
        "to": "0x85d31445af0b0ff26851bf3c5e27e90058df3270",
        "gas": "0x22365",
        "value": "0x0",
        "input": "0x4d29cc0100000000000000000000000062a3a7ebc812810f868ef52be81935147ed9456c00000000000000000000000000000000000000000000000000000000000000010000000000000000000000000000000000000000000000000000000000000001",
        "nonce": "0x8",
        "chainId": "0x1"
      },
      "additionalContracts": [],
      "isFixedGasLimit": false
    }
  ],
  "receipts": [
    {
      "status": "0x1",
      "cumulativeGasUsed": "0x4c25a3",
      "logs": [
        {
          "address": "0x85d31445af0b0ff26851bf3c5e27e90058df3270",
          "topics": [
            "0x9853225bc90f5a4f2ade273d80b42a308ee708d7c1edcc02fc3091e65ffdc586",
            "0x00000000000000000000000062a3a7ebc812810f868ef52be81935147ed9456c",
            "0x0000000000000000000000000000000000000000000000000000000000000001"
          ],
          "data": "0x0000000000000000000000000000000000000000000000000000000000000001",
          "blockHash": "0x3e8ed2b79fb1a163bf491ed472978cd267ca46571f7e9ed5855333e0a1539cfe",
          "blockNumber": "0x1530bff",
          "transactionHash": "0xc93348e4b7bd20fb12bc28851db9ba418307329f9455b5140e97aa792b77833d",
          "transactionIndex": "0x65",
          "logIndex": "0x52",
          "removed": false
        }
      ],
      "logsBloom": "0x00000000000000000400000000000000000000000001000000000000000000000000000000000000000000000000800000000000000000000000000000040008000000000000000000000000008000000000000000040000000000000000000000000000000000000000000000000000000000000000000000000000000000000000000000000000400000000000000000000000000000000000000000000000000000002000000000000000000000000000000000000000000000000000000000000000000000000000000000000010000000000000000000000000000040000000000000000000000000000008000000000000000000000000000000000000",
      "type": "0x2",
      "transactionHash": "0xc93348e4b7bd20fb12bc28851db9ba418307329f9455b5140e97aa792b77833d",
      "transactionIndex": "0x65",
      "blockHash": "0x3e8ed2b79fb1a163bf491ed472978cd267ca46571f7e9ed5855333e0a1539cfe",
      "blockNumber": "0x1530bff",
      "gasUsed": "0x1764a",
      "effectiveGasPrice": "0x945fe58b",
      "from": "0x6ae493db8577b7387a335a81a1b562415d0ccb4b",
      "to": "0x85d31445af0b0ff26851bf3c5e27e90058df3270",
      "contractAddress": null
    }
  ],
  "libraries": [],
  "pending": [],
  "returns": {},
  "timestamp": 1744062164,
  "chain": 1,
  "commit": "d96c6be"
}