{
  "transactions": [
    {
      "hash": "0xd8149386981a3c4ad2e7c2599f273aa63f24f6817823df383cfe16b97d447e97",
      "transactionType": "CALL",
      "contractName": null,
      "contractAddress": "0x4c93183f1a40eeb12886b6713187937ec08da3f0",
      "function": "setOpenEditionToken(address,uint256,uint32)",
      "arguments": [
        "0x4CB756f71A63785a40d2d2D5a7AE56caAb9f9BCa",
        "0",
        "1"
      ],
      "transaction": {
        "from": "0x6ae493db8577b7387a335a81a1b562415d0ccb4b",
        "to": "0x4c93183f1a40eeb12886b6713187937ec08da3f0",
        "gas": "0x1bad3",
        "value": "0x0",
        "input": "0xd47333ee0000000000000000000000004cb756f71a63785a40d2d2d5a7ae56caab9f9bca00000000000000000000000000000000000000000000000000000000000000000000000000000000000000000000000000000000000000000000000000000001",
        "nonce": "0x1e",
        "chainId": "0x1"
      },
      "additionalContracts": [],
      "isFixedGasLimit": false
    }
  ],
  "receipts": [
    {
      "status": "0x1",
      "cumulativeGasUsed": "0x4a4ede",
      "logs": [
        {
          "address": "0x4c93183f1a40eeb12886b6713187937ec08da3f0",
          "topics": [
            "0x9853225bc90f5a4f2ade273d80b42a308ee708d7c1edcc02fc3091e65ffdc586",
            "0x0000000000000000000000004cb756f71a63785a40d2d2d5a7ae56caab9f9bca",
            "0x0000000000000000000000000000000000000000000000000000000000000000"
          ],
          "data": "0x0000000000000000000000000000000000000000000000000000000000000001",
          "blockHash": "0xdc266e277e2e1f47cf103aefd526364f50ae33f024f191a65a9234659224e916",
          "blockNumber": "0x15635af",
          "transactionHash": "0xd8149386981a3c4ad2e7c2599f273aa63f24f6817823df383cfe16b97d447e97",
          "transactionIndex": "0x61",
          "logIndex": "0x5f",
          "removed": false
        }
      ],
      "logsBloom": "0x00000000000000000400000000010000000000000000000000000000000020000000000000000020000000000000000000000000000000000000000000000008000000000000000000000000004000000000000800000000000000000000000000000000020000000000000000000800000000000000000000000000000000000000000000000000000000000000000000000000000000000000000000000000000000002000000000000000000000000000000000000000000000000000000000000000000000000000000000000000000800000000000000000000000020000000000000000000000000000000000000000000000000000000000000000000",
      "type": "0x2",
      "transactionHash": "0xd8149386981a3c4ad2e7c2599f273aa63f24f6817823df383cfe16b97d447e97",
      "transactionIndex": "0x61",
      "blockHash": "0xdc266e277e2e1f47cf103aefd526364f50ae33f024f191a65a9234659224e916",
      "blockNumber": "0x15635af",
      "gasUsed": "0x12eca",
      "effectiveGasPrice": "0x21153389",
      "from": "0x6ae493db8577b7387a335a81a1b562415d0ccb4b",
      "to": "0x4c93183f1a40eeb12886b6713187937ec08da3f0",
      "contractAddress": null
    }
  ],
  "libraries": [],
  "pending": [],
  "returns": {},
  "timestamp": 1746563425,
  "chain": 1,
  "commit": "0ca9113"
}