{
  "transactions": [
    {
      "hash": "0xdc9b4dab6fce0627cc5f8ce21e71e3b8ea34994861245b34546dd6aea705f3fd",
      "transactionType": "CALL",
      "contractName": null,
      "contractAddress": "0x088276f447bd80882330e225a255930c201836c4",
      "function": "setOpenEditionToken(address,uint256,uint256)",
      "arguments": [
        "0x62A3A7ebc812810f868ef52be81935147Ed9456c",
        "1",
        "1"
      ],
      "transaction": {
        "from": "0x6ae493db8577b7387a335a81a1b562415d0ccb4b",
        "to": "0x088276f447bd80882330e225a255930c201836c4",
        "gas": "0x22365",
        "value": "0x0",
        "input": "0x4d29cc0100000000000000000000000062a3a7ebc812810f868ef52be81935147ed9456c00000000000000000000000000000000000000000000000000000000000000010000000000000000000000000000000000000000000000000000000000000001",
        "nonce": "0x3",
        "chainId": "0x1"
      },
      "additionalContracts": [],
      "isFixedGasLimit": false
    }
  ],
  "receipts": [
    {
      "status": "0x1",
      "cumulativeGasUsed": "0xea4873",
      "logs": [
        {
          "address": "0x088276f447bd80882330e225a255930c201836c4",
          "topics": [
            "0x9853225bc90f5a4f2ade273d80b42a308ee708d7c1edcc02fc3091e65ffdc586",
            "0x00000000000000000000000062a3a7ebc812810f868ef52be81935147ed9456c",
            "0x0000000000000000000000000000000000000000000000000000000000000001"
          ],
          "data": "0x0000000000000000000000000000000000000000000000000000000000000001",
          "blockHash": "0x822bc8191003f4624be0097086f1e61996b856c82e9e53b6c783da1d293195d8",
          "blockNumber": "0x151a510",
          "transactionHash": "0xdc9b4dab6fce0627cc5f8ce21e71e3b8ea34994861245b34546dd6aea705f3fd",
          "transactionIndex": "0xc3",
          "logIndex": "0x2d2",
          "removed": false
        }
      ],
      "logsBloom": "0x00000000000000000400000000000000000000000000000000000000000000000000000000000000000000000000000000000000000000000000000000040008000000000000000000000000008000000000000000040000000000000000000000000000000000000000000000000000000000000000000000000000000000000000000008000000400000000000000000000000000000000000000000000000000000002000000000000000000000000000000000000000000000000000000000000000000000000000000000000010000000000000000000010000000040000000000000000080000000000000000000000000000000000000000000000000",
      "type": "0x2",
      "transactionHash": "0xdc9b4dab6fce0627cc5f8ce21e71e3b8ea34994861245b34546dd6aea705f3fd",
      "transactionIndex": "0xc3",
      "blockHash": "0x822bc8191003f4624be0097086f1e61996b856c82e9e53b6c783da1d293195d8",
      "blockNumber": "0x151a510",
      "gasUsed": "0x1764a",
      "effectiveGasPrice": "0x16235149",
      "from": "0x6ae493db8577b7387a335a81a1b562415d0ccb4b",
      "to": "0x088276f447bd80882330e225a255930c201836c4",
      "contractAddress": null
    }
  ],
  "libraries": [],
  "pending": [],
  "returns": {},
  "timestamp": 1742953671,
  "chain": 1,
  "commit": "734e5b0"
}