{
  "transactions": [
    {
      "hash": "0x54c082c97c588308e42bdb2a68d7afc37531eee67ef67d52aac2cb876cfc8828",
      "transactionType": "CALL",
      "contractName": null,
      "contractAddress": "0x85d31445af0b0ff26851bf3c5e27e90058df3270",
      "function": "addCosigner(address)",
      "arguments": [
        "0x993f64E049F95d246dc7B0D196CB5dC419d4e1f1"
      ],
      "transaction": {
        "from": "0x6ae493db8577b7387a335a81a1b562415d0ccb4b",
        "to": "0x85d31445af0b0ff26851bf3c5e27e90058df3270",
        "gas": "0x12006",
        "value": "0x0",
        "input": "0x6dbf1655000000000000000000000000993f64e049f95d246dc7b0d196cb5dc419d4e1f1",
        "nonce": "0x9",
        "chainId": "0x1"
      },
      "additionalContracts": [],
      "isFixedGasLimit": false
    }
  ],
  "receipts": [
    {
      "status": "0x1",
      "cumulativeGasUsed": "0xe00ce5",
      "logs": [
        {
          "address": "0x85d31445af0b0ff26851bf3c5e27e90058df3270",
          "topics": [
            "0x758f46d6402b2cfe183c96029286524f6abcfbe17b1cc7db2834ecc3f23640d5",
            "0x000000000000000000000000993f64e049f95d246dc7b0d196cb5dc419d4e1f1"
          ],
          "data": "0x",
          "blockHash": "0x0f877f6fd648e1e37c354d510fb24a69ec015a9540de668193809a81cc627198",
          "blockNumber": "0x1530c05",
          "transactionHash": "0x54c082c97c588308e42bdb2a68d7afc37531eee67ef67d52aac2cb876cfc8828",
          "transactionIndex": "0x79",
          "logIndex": "0x111",
          "removed": false
        }
      ],
      "logsBloom": "0x00000000000000000000000000000020000000000001000002000000000000000000000000000000000000000000800000000000000000000000000000000000000000000000000000000000000000000000000000000000000000000000000000000000000000000000000000000010000000000000000000000000000000000000000000002000000000000000000000000000000000000000000000000000000008000000000000000000000000000000000000000000000000000000000000000000000000000000000000000000000000000000000000000000000000000000000000000000000000000008000000000000000000000000000000000000",
      "type": "0x2",
      "transactionHash": "0x54c082c97c588308e42bdb2a68d7afc37531eee67ef67d52aac2cb876cfc8828",
      "transactionIndex": "0x79",
      "blockHash": "0x0f877f6fd648e1e37c354d510fb24a69ec015a9540de668193809a81cc627198",
      "blockNumber": "0x1530c05",
      "gasUsed": "0xc4f1",
      "effectiveGasPrice": "0x8767c155",
      "from": "0x6ae493db8577b7387a335a81a1b562415d0ccb4b",
      "to": "0x85d31445af0b0ff26851bf3c5e27e90058df3270",
      "contractAddress": null
    }
  ],
  "libraries": [],
  "pending": [],
  "returns": {},
  "timestamp": 1744062229,
  "chain": 1,
  "commit": "d96c6be"
}