{
  "transactions": [
    {
      "hash": "0x695bd37984ffffc790befc293f2855ee964f3fc4619305424082e0c322e152b7",
      "transactionType": "CALL",
      "contractName": null,
      "contractAddress": "0xe6b247ea4dd0c77a3ef8d99a30b4877a779e1c9c",
      "function": "setFeeReceiver(address)",
      "arguments": [
        "0x2918F39540df38D4c33cda3bCA9edFccd8471cBE"
      ],
      "transaction": {
        "from": "0x6ae493db8577b7387a335a81a1b562415d0ccb4b",
        "to": "0xe6b247ea4dd0c77a3ef8d99a30b4877a779e1c9c",
        "gas": "0xbb7e",
        "value": "0x0",
        "input": "0xefdcd9740000000000000000000000002918f39540df38d4c33cda3bca9edfccd8471cbe",
        "nonce": "0xf",
        "chainId": "0x1"
      },
      "additionalContracts": [],
      "isFixedGasLimit": false
    }
  ],
  "receipts": [
    {
      "status": "0x1",
      "cumulativeGasUsed": "0x60806a",
      "logs": [
        {
          "address": "0xe6b247ea4dd0c77a3ef8d99a30b4877a779e1c9c",
          "topics": [
            "0xa92ff4390fe6943f0b30e8fe715dde86f85ab79b2b2c640a10fc094cc4036cc8",
            "0x00000000000000000000000085d31445af0b0ff26851bf3c5e27e90058df3270",
            "0x0000000000000000000000002918f39540df38d4c33cda3bca9edfccd8471cbe"
          ],
          "data": "0x",
          "blockHash": "0x6870edf82d15b8731370bd12eb14e7a5d255e503e5af309af4f1c85e7d7d57a9",
          "blockNumber": "0x154fe60",
          "transactionHash": "0x695bd37984ffffc790befc293f2855ee964f3fc4619305424082e0c322e152b7",
          "transactionIndex": "0x3f",
          "logIndex": "0x81",
          "removed": false
        }
      ],
      "logsBloom": "0x00000000000000000000000000000000000000000040000000000000000000000000000000000000008000000000000000000000000000000000000010000000000000000000000010000000000000000000000000000000000000000000000000000000000000000000000000000000000000000000000000000000000000000000000000000000000000000000000000000000000000000000000000000000000000000000000000000000000000400000200000000000000000000000000000000009000000000000000000000000000000000000080000000000000000000000000000000000000000000000000800002000000000000080000000000000",
      "type": "0x2",
      "transactionHash": "0x695bd37984ffffc790befc293f2855ee964f3fc4619305424082e0c322e152b7",
      "transactionIndex": "0x3f",
      "blockHash": "0x6870edf82d15b8731370bd12eb14e7a5d255e503e5af309af4f1c85e7d7d57a9",
      "blockNumber": "0x154fe60",
      "gasUsed": "0x87bf",
      "effectiveGasPrice": "0xa83331e2",
      "from": "0x6ae493db8577b7387a335a81a1b562415d0ccb4b",
      "to": "0xe6b247ea4dd0c77a3ef8d99a30b4877a779e1c9c",
      "contractAddress": null
    }
  ],
  "libraries": [],
  "pending": [],
  "returns": {},
  "timestamp": 1745600101,
  "chain": 1,
  "commit": "21d53a4"
}