{
  "transactions": [
    {
      "hash": "0x763bef377c3799be05802cb8d37008c1226edd36d9cd7379fd4f8f8772478137",
      "transactionType": "CALL",
      "contractName": null,
      "contractAddress": "0x2b70a8b5edf68306adc6288aac69b8e23c88c1bb",
      "function": "setOpenEditionToken(address,uint256,uint256)",
      "arguments": [
        "0x8149f18fb8f47c3CC50bA3c972522a53b0dAc6D2",
        "1",
        "1"
      ],
      "transaction": {
        "from": "0xe052c9cfe22b5974dc821cba907f1daac7979c94",
        "to": "0x2b70a8b5edf68306adc6288aac69b8e23c88c1bb",
        "gas": "0x22365",
        "value": "0x0",
        "input": "0x4d29cc010000000000000000000000008149f18fb8f47c3cc50ba3c972522a53b0dac6d200000000000000000000000000000000000000000000000000000000000000010000000000000000000000000000000000000000000000000000000000000001",
        "nonce": "0xb3",
        "chainId": "0xaa36a7"
      },
      "additionalContracts": [],
      "isFixedGasLimit": false
    }
  ],
  "receipts": [
    {
      "status": "0x1",
      "cumulativeGasUsed": "0x63e6b4",
      "logs": [
        {
          "address": "0x2b70a8b5edf68306adc6288aac69b8e23c88c1bb",
          "topics": [
            "0x9853225bc90f5a4f2ade273d80b42a308ee708d7c1edcc02fc3091e65ffdc586",
            "0x0000000000000000000000008149f18fb8f47c3cc50ba3c972522a53b0dac6d2",
            "0x0000000000000000000000000000000000000000000000000000000000000001"
          ],
          "data": "0x0000000000000000000000000000000000000000000000000000000000000001",
          "blockHash": "0x6b09edd5a6d40df8cd3c451f9bf92cbb9304bcd5d261ec41664e29c4776724ac",
          "blockNumber": "0x79cc2f",
          "transactionHash": "0x763bef377c3799be05802cb8d37008c1226edd36d9cd7379fd4f8f8772478137",
          "transactionIndex": "0x52",
          "logIndex": "0x60",
          "removed": false
        }
      ],
      "logsBloom": "0x00000000000000000400000000000000000000000000000000000000000000000000000000000000000000000000000008000000000000000000000000040008000000000000000000000000000000000000000000040000000000000180000000000000000000000000000000000000000000000000000000000000000000000000000000000080000000000000000000000000000000000000000000000000000000002800000000000000000000000000000000000000000000000000000000000000000000000002000000000000000000000000000000000000000040000000000000000000000000000000000000000000000000000000000000000000",
      "type": "0x2",
      "transactionHash": "0x763bef377c3799be05802cb8d37008c1226edd36d9cd7379fd4f8f8772478137",
      "transactionIndex": "0x52",
      "blockHash": "0x6b09edd5a6d40df8cd3c451f9bf92cbb9304bcd5d261ec41664e29c4776724ac",
      "blockNumber": "0x79cc2f",
      "gasUsed": "0x1764a",
      "effectiveGasPrice": "0x5c84ee",
      "from": "0xe052c9cfe22b5974dc821cba907f1daac7979c94",
      "to": "0x2b70a8b5edf68306adc6288aac69b8e23c88c1bb",
      "contractAddress": null
    }
  ],
  "libraries": [],
  "pending": [],
  "returns": {},
  "timestamp": 1742953225,
  "chain": 11155111,
  "commit": "734e5b0"
}